{
    "contractName": "SimpleQuoter",
    "abi": [
        {
            "inputs": [
                {
                    "internalType": "address",
                    "name": "_owner",
                    "type": "address"
                }
            ],
            "stateMutability": "nonpayable",
            "type": "constructor"
        },
        {
            "inputs": [
                {
                    "internalType": "address",
                    "name": "owner",
                    "type": "address"
                }
            ],
            "name": "OwnableInvalidOwner",
            "type": "error"
        },
        {
            "inputs": [
                {
                    "internalType": "address",
                    "name": "account",
                    "type": "address"
                }
            ],
            "name": "OwnableUnauthorizedAccount",
            "type": "error"
        },
        {
            "inputs": [],
            "name": "ZeroOutput",
            "type": "error"
        },
        {
            "anonymous": false,
            "inputs": [
                {
                    "indexed": true,
                    "internalType": "address",
                    "name": "previousOwner",
                    "type": "address"
                },
                {
                    "indexed": true,
                    "internalType": "address",
                    "name": "newOwner",
                    "type": "address"
                }
            ],
            "name": "OwnershipTransferred",
            "type": "event"
        },
        {
            "inputs": [],
            "name": "owner",
            "outputs": [
                {
                    "internalType": "address",
                    "name": "",
                    "type": "address"
                }
            ],
            "stateMutability": "view",
            "type": "function"
        },
        {
            "inputs": [
                {
                    "internalType": "PoolId",
                    "name": "",
                    "type": "bytes32"
                },
                {
                    "internalType": "bool",
                    "name": "zeroForOne",
                    "type": "bool"
                },
                {
                    "internalType": "int256",
                    "name": "amountSpecified",
                    "type": "int256"
                },
                {
                    "internalType": "uint256",
                    "name": "bidPriceX96",
                    "type": "uint256"
                },
                {
                    "internalType": "uint256",
                    "name": "spreadX96",
                    "type": "uint256"
                },
                {
                    "internalType": "uint32",
                    "name": "lastUpdate",
                    "type": "uint32"
                }
            ],
            "name": "quoteTrade",
            "outputs": [
                {
                    "internalType": "uint256",
                    "name": "amIn",
                    "type": "uint256"
                },
                {
                    "internalType": "uint256",
                    "name": "amOut",
                    "type": "uint256"
                }
            ],
            "stateMutability": "view",
            "type": "function"
        },
        {
            "inputs": [],
            "name": "renounceOwnership",
            "outputs": [],
            "stateMutability": "nonpayable",
            "type": "function"
        },
        {
            "inputs": [
                {
                    "internalType": "address",
                    "name": "newOwner",
                    "type": "address"
                }
            ],
            "name": "transferOwnership",
            "outputs": [],
            "stateMutability": "nonpayable",
            "type": "function"
        }
    ],
    "bytecode": "60803460b857601f6105ba38819003918201601f19168301916001600160401b0383118484101760bc5780849260209460405283398101031260b857516001600160a01b0381169081900360b857801560a5575f80546001600160a01b031981168317825560405192916001600160a01b03909116907f8be0079c531659141344cd1fd0a4f28419497f9722a3daafe3b4186f6b6457e09080a36104e990816100d18239f35b631e4fbdf760e01b5f525f60045260245ffd5b5f80fd5b634e487b7160e01b5f52604160045260245ffdfe60806040526004361015610011575f80fd5b5f3560e01c8063715018a6146102e35780638cac8504146100f95780638da5cb5b146100d25763f2fde38b14610045575f80fd5b346100ce5760203660031901126100ce576004356001600160a01b038116908190036100ce5761007361033a565b80156100bb575f80546001600160a01b03198116831782556001600160a01b0316907f8be0079c531659141344cd1fd0a4f28419497f9722a3daafe3b4186f6b6457e09080a3005b631e4fbdf760e01b5f525f60045260245ffd5b5f80fd5b346100ce575f3660031901126100ce575f546040516001600160a01b039091168152602090f35b346100ce5760c03660031901126100ce5760243580151581036100ce576044359060643560a4359063ffffffff82168092036100ce5782156102d157905b804203904282116101f6576064820291820460641490421417156101f6576101f401806101f4116101f657620f42408111156102cb5750620f4240925b5f81121561020a57600160ff1b81146101f657805f0393620f42400390620f424082116101f6578185029185830414901517156101f657620f4240900491156101e7576101c0916103ea565b905b81156101d8576040915b82519182526020820152f35b63730c31bf60e11b5f5260045ffd5b6101f091610360565b906101c2565b634e487b7160e01b5f52601160045260245ffd5b908193925f146102a25761022381600160601b84610433565b91811561028257600160601b9009610296575b81620f42400390620f424082116101f65761025582620f424083610433565b92620f42401461028257620f42409009610272575b6040916101cc565b6001019081156100ce579061026a565b634e487b7160e01b5f52601260045260245ffd5b60010180610236575f80fd5b906102b2600160601b8383610433565b91600160601b9109156102365760010180610236575f80fd5b92610174565b60843581018091116101f65790610137565b346100ce575f3660031901126100ce576102fb61033a565b5f80546001600160a01b0319811682556001600160a01b03167f8be0079c531659141344cd1fd0a4f28419497f9722a3daafe3b4186f6b6457e08280a3005b5f546001600160a01b0316330361034d57565b63118cdaa760e01b5f523360045260245ffd5b90606082901b905f19600160601b8409928280851094039380850394858411156100ce57146103e3578190600160601b900981805f03168092046002816003021880820260020302808202600203028082026002030280820260020302808202600203028091026002030293600183805f03040190848311900302920304170290565b5091500490565b81810291905f1982820991838084109303928084039384600160601b11156100ce571461042a57600160601b910990828211900360a01b910360601c1790565b50505060601c90565b91818302915f19818509938380861095039480860395868511156100ce57146104ab579082910981805f03168092046002816003021880820260020302808202600203028082026002030280820260020302808202600203028091026002030293600183805f03040190848311900302920304170290565b50509150049056fea2646970667358221220d369abaae63fe67b5d732d7760f0e2266280bdf1c95f7d5910fc4c97a32785d264736f6c63430008220033",
    "sourcePath": "/home/main/structured-products/hyfi-hook/src/SimpleQuoter.sol",
    "compiler": {
        "name": "solc",
        "version": "0.8.34+commit.80d5c536"
    },
    "functionHashes": {
        "owner()": "8da5cb5b",
        "quoteTrade(bytes32,bool,int256,uint256,uint256,uint32)": "8cac8504",
        "renounceOwnership()": "715018a6",
        "transferOwnership(address)": "f2fde38b"
    },
    "gasEstimates": {
        "creation": {
            "codeDepositCost": "251400",
            "executionCost": "infinite",
            "totalCost": "infinite"
        },
        "external": {
            "owner()": "2315",
            "quoteTrade(bytes32,bool,int256,uint256,uint256,uint32)": "infinite",
            "renounceOwnership()": "28042",
            "transferOwnership(address)": "28186"
        },
        "internal": {
            "_fee(uint32)": "infinite"
        }
    }
}